S01800004C6162375F416C6C5F496E636C756465732E73333788
S113000000100020110A00000D0A00000D0A000073
S11300100D0A00000D0A00000D0A00000D0A000080
S11300200D0A00000D0A00000D0A00000D0A000070
S11300300D0A00000D0A0000E32400000D0A000070
S11300400D0A00000D0A00000D0A00000D0A000050
S11300500D0A00000D0A00000D0A00000D0A000040
S11300600D0A00000D0A00000D0A00000D0A000030
S11300700D0A00000D0A00000D0A00000D0A000020
S11300800D0A00000D0A00000D0A00000D0A000010
S11300900D0A00000D0A00000D0A00000D0A000000
S11300A00D0A00000D0A00000D0A00000D0A0000F0
S11300B00D0A00000D0A0000B12A00000D0A00001C
S11300C00D0A00000D0A00000D0A00000D0A0000D0
S11300D00D0A00000D0A00000D0A00000D0A0000C0
S11300E00D0A00000D0A00000D0A00000D0A0000B0
S11300F00D0A00000D0A00000D0A00000D0A0000A0
S11301000D0A00000D0A00000D0A000010B5054C90
S1130110237833B9044B13B10448AFF300800123AF
S1130120237010BD7C100020000000002C33000060
S113013008B5034B1BB103490348AFF3008008BD66
S113014000000000801000202C330000A3F5803A4A
S1130150704700BF174B002B08BF134B9D46FFF79A
S1130160F5FF00218B460F461348144A121A02F079
S113017081FF0E4B002B00D098470D4B002B00D075
S113018098470020002104000D000D48002802D0EB
S11301900C48AFF3008002F03BFF2000290002F07E
S11301A023FD02F021FF00BF000008000000000052
S11301B000000000001000207C100020E81900203E
S11301C0000000000000000010B5114C114AA261AB
S11301D00323C4E90433104BE36122664FF48063C4
S11301E00E4A0F492362626600231022E01DA362B7
S11301F06362E3622367E3666367A26602F042FF19
S11302000849204602F03EFF2023A37110BD00BF21
S113021098100020B0300000501100204011002040
S1130220B9300000BD3000002DE9F84FDFF87C80C4
S113023098F800308246894616460BB9FFF7C4FF8A
S1130240182707FB0A873D6FD7F86CB05D452BD99B
S1130250BC6E796E641BB44228BF344629444846B8
S1130260224602F0F9FEBB6E2544A144361BAB4284
S113027008BF0025ABEB0502964228BF164656B1CF
S1130280182303FB0A833246596E4846294402F078
S1130290E3FE3444354424B1182000FB0A88C8F82E
S11302A070502046BDE8F88F0024E3E79810002042
S11302B0F0B400EB4003DFF8800000EBC30000F172
S11302C018063069F768756887422ED3B368DC1B5B
S11302D0631E934212D37D19D01900BF11F8013B5C
S11302E005F8013B013A05D011F8013B05F8013B43
S11302F0013AF3D1F0600120F0BC7047C01890427D
S113030017D37819121B11F8013B00F8013B013C8B
S1130310F9D1141C05D011F8013B05F8013B013A51
S1130320F9D1F4600120F0BC7047C01B0138904241
S1130330D1D20020F0BC70479810002030B50023C3
S1130340CC5C74B99A4228BF1A46FE2AD4B20AD8A1
S1130350034603F8014B581E8C18A1420AD1981881
S113036030BD0133ECE7FF234470140A037084703A
S1130370C31CF0E711F8015B00F8015FEDE7000032
S1130380034B1B6A13B15B6803B11847704700BF86
S113039054150020024B1B69C01A8008704700BF27
S11303A054150020044B10B51C6824B1E36803B154
S11303B098472469F9E710BD6016002010B5EFF3E3
S11303C011844FF0200181F31188094B09481B78EF
S11303D07F2B89BF084907490B71053188BF012369
S11303E001F8013B1B2200F0ABF884F3118810BD27
S11303F050150020801500207C15002038B52A4CAB
S113040001202070EFF311854FF0200181F3118852
S113041026490A22FFF74CFF85F311880A2000F0D1
S113042035F9EFF311854FF0200181F3118820484D
S113043061687F29CAB200F1010320D80270A06864
S11304407F28C2B203F1010120D81A7022697F2AE1
S1130450D3B222D80B7002234B70154818221944CA
S113046000F06EF885F31188636A03B1984700F0D1
S11304706BF9FFF785FFBDE83840FFF79FBF62F0D7
S11304807F0203F8012CC9091846D2E762F07F0203
S113049001F8012CC0090B46D2E763F07F0301F891
S11304A0013BD209D3E700BF54150020C43000003B
S11304B08015002007B501220DF107011046FFF752
S11304C0B3FE002819DD9DF80730072B08D84BB17F
S11304D0023B052B0FD8DFE803F01316191C1F226B
S11304E0802B1FD01B0608D501220DF107011046F1
S11304F0FFF79AFE01E0FFF781FF03B05DF804FB0C
S113050000F03CF9F9E700F01FF9F6E7FFF738FFD0
S1130510F3E700F04BF9F0E7FFF750FFEDE7FFF7E3
S113052041FFEAE701220DF107011046FFF77CFEC7
S11305300028E2DD9DF8070000F008FADDE700007E
S11305402DE9FF414E4C2378012B06460F461546F4
S113055023D11F2D6DD9BB1B7F2BDAB281BF62F073
S11305607F02DB0906F8013C06F8022C8EBFB31E9D
S113057006F1FF3306F8012C7F2DEAB281BF62F049
S11305807F02ED0903F8015C991E8EBF03F8022C6B
S113059003F1FF3103F8012C55E03BB3022BD8D112
S11305A0012362698DF804300DF105007F2AD3B26E
S11305B000F101012BD80370324BD3F80480E368B7
S11305C0A8EB03037F2BD8B201F1010226D80870EF
S11305D001A9521A0120FFF76BFE30B32378C4F847
S11305E00C80013B23702378012BB2D0264BD3F827
S11305F08420D3F888309A4206D0A57825B90123FF
S1130600A370FFF757FFA57004B0BDE8F08163F055
S11306107F0301F8013CD2090846C7E760F07F0078
S113062002F8010CDB091146CCE76369013363610D
S1130630D9E7E369EB40DB07D8D4172DEBB28AD8AE
S1130640711E06F8013C0F4B5D68E368EB1A7F2BC3
S1130650D8B207F1010207D83870521A0120FFF707
S113066027FE40B1E560C1E760F07F0002F8010CAD
S1130670DB091746EBE7237801332370B6E700BFA5
S113068054150020001000E09810002010B5024618
S1130690EFF311844FF0200181F3118803490846D8
S11306A0FFF74EFF84F3118810BD00BF80150020B2
S11306B038B502460B46EFF311854FF0200181F364
S11306C011880A487F2BDCB200F1010106D80470BE
S11306D00648FFF735FF85F3118838BD64F07F04C1
S11306E001F8014CDB090846ECE700BF8015002047
S11306F070B50B46EFF311854FF0200181F311889B
S1130700104E7F2BD9B206F101040DD831707F2A27
S1130710D3B204F101010ED8024623700948FFF751
S11307200FFF85F3118870BD61F07F0104F8011C8F
S1130730DB092646E5E763F07F0301F8013CD209B3
S11307400C46E4E78015002008B50A4B1B6A4BB140
S11307501B683BB19847BDE808400A4601460D2096
S1130760FFF7C6BF044B0C205968BDE80840FFF7EB
S11307709FBF00BF54150020001000E038B5EFF310
S113078011854FF0200181F31188064C237833B191
S113079005490B220846FFF7D3FE0023237085F397
S11307A0118838BD541500208015002070B5EFF372
S11307B011854FF0200181F311881C4C1C4861689D
S11307C07F29CAB200F101031AD80270A0687F28F9
S11307D0C2B203F101011AD81A7022697F2AD3B276
S11307E01CD80B7002234B70114818221944FFF7D0
S11307F0A7FE85F31188636AB3B1BDE8704018475A
S113080062F07F0203F8012CC9091846D8E762F0A8
S11308107F0201F8012CC0090B46D8E763F07F037F
S113082001F8013BD209D9E770BD00BF541500207F
S11308308015002010B5EFF311844FF0200181F3EF
S11308401188044911220846FFF77AFE84F31188BF
S113085010BD00BF8015002010B5EFF311844FF0D8
S1130860200181F311880C4B0C4A1B69C01A8008C3
S11308707F28C3B202F1010107D81370074804228C
S1130880FFF75EFE84F3118810BD63F07F0301F867
S1130890013CC0090A46EBE75415002080150020EE
S11308A010B5EFF311844FF0200181F311880C4B44
S11308B00C4A1B69C01A80087F28C3B202F10101E7
S11308C007D8137007480622FFF73AFE84F311880D
S11308D010BD63F07F0301F8013CC0090A46EBE751
S11308E0541500208015002038B50B46EFF3118411
S11308F04FF0200181F31188124A134D1269801AB6
S113090080087F28C1B205F101020DD829707F2B20
S1130910D8B202F101010ED810700B480722FFF77C
S11309200FFE84F3118838BD61F07F0102F8011CC9
S1130930C0091546E5E760F07F0001F8010CDB090A
S11309400A46E4E7541500208015002038B51B4BF7
S11309501C6884B938BD2469002CFBD0013398424B
S1130960F9D8EFF311854FF0200181F311887F2826
S113097004D8134B06E000230246F0E7114B012292
S11309801871053303F8012BA1687F29CAB203F15A
S113099001000CD81A7021688022FFF7CFFC1622C0
S11309A001460748FFF7CCFD85F31188D2E762F0D2
S11309B07F0200F8012CC9090346E6E7601600200F
S11309C0801500207C15002010B5044601F04FF876
S11309D020B92046BDE81040FFF762BF10BD10B536
S11309E0044601F044F820B92046BDE81040FFF762
S11309F033BF10BD10B5044601F039F828B92046BC
S1130A000421BDE81040FFF76FBF10BDFEE70000F2
S1130A1008B500F059F8064B0649074A8B4201D342
S1130A20FFF798FB52F8040B43F8040BF6E700BFFA
S1130A30001000207C100020343300000048704770
S1130A40005A6202104AD2F8943003F00703023BC2
S1130A50032B13D8DFE803F00C14020E0B4B1B68B6
S1130A60D2F80001C0F304200130B3FBF0F070476A
S1130A70074BF4E7074B1B685B08F1E7054BEEE710
S1130A804FF40043ECE700BF00400E400C10002080
S1130A90041000200810002008B5FFF7D3FF054B11
S1130AA0D3F80831C3F308230133B0FBF3F0024B4E
S1130AB0186008BD00400E4000100020014B18686B
S1130AC0704700BF04100020044B054A9A60D3F815
S1130AD0882042F47002C3F88820704700ED00E0DB
S1130AE000000000FEE700000C4B984210D90C4BAC
S1130AF0984210D9022201230A490B640A49D1F809
S1130B00003123F0807343EA0263C1F80031704777
S1130B1000221346F0E70122FBE700BF0048E8018A
S1130B200090D0030000C84300400E4038B5114B7C
S1130B305B68114B00221C46C9B21D798D4202D15B
S1130B401D68854212D20132052A03F10803F4D14B
S1130B500A4841F23A41FFF7C5FF032205494B68B1
S1130B6023F0407343EA02634B6038BD04EBC202D6
S1130B705279F3E700000E4060310000CE300000EF
S1130B8038B5074C41F67133256C2364FFF756FFE3
S1130B900021FFF7CBFF0DB10023236438BD00BF54
S1130BA000000E40044BDB6B5B0604D4034AD2F80E
S1130BB0C830002BFBD1704700300E400000C64304
S1130BC008B5FFF7EFFF024B5868C0F3014008BDBA
S1130BD000300E40044BD3F84421D20703D4D3F899
S1130BE040211042FBD1704700400E4038B5054CFF
S1130BF041F67133256C2364FFF798FF0DB1002390
S1130C00236438BD00000E4038B5C0F30323013B14
S1130C10092B24D8DFE803F02A2D232305161923F2
S1130C201C20154C0023C0F3043513B11846FFF7FC
S1130C30D1FF04F1424404F5801405EBC404A4007C
S1130C40216038BD0D4C0123EDE70D4C1023EAE77C
S1130C500C4C4FF48033E6E70B4C0023E3E7BDE88C
S1130C6038400A4841F6D711FFF73CBF084C00232F
S1130C70D9E7084C0023D6E7B0400E40E0400E40D0
S1130C80E8400E40F0400E4050410E40CE3000008F
S1130C9000400E40C0400E4000F00F00013808B57F
S1130CA0072844D8DFE800F0040F1943232D433507
S1130CB0264BD3F8943003F00703023B052B3DD8B1
S1130CC0234AD05C08BD214BD3F8803003F00703DE
S1130CD0013B032B34D81F4AF3E71C4BD3F8843071
S1130CE003F00703013B032B2AD81B4AE9E7174B00
S1130CF0D3F8883003F00703013B032B20D8174AAD
S1130D00DFE7124B1B6F13F0010F0CBF0720092004
S1130D10D8E70E4BD3F85C3103F03003202B11D00D
S1130D20302B11D0102B14BF01200720CAE70C4828
S1130D3041F62771FFF7D6FE0020C3E70520C1E77F
S1130D400120BFE70420BDE70820BBE700400E40B8
S1130D5031310000373100003B31000037310000F1
S1130D60CE300000013838B50C46032864D8DFE8DB
S1130D7000F002441A2FB1F5007F04D3324842F246
S1130D802571FFF7AFFE314AC4F30804D2F868387E
S1130D90002BFBD12E4A136A23F4FF7323F00103C3
S1130DA02343136238BD7F2904D9274842F23271A4
S1130DB0FFF798FE254A04F07F01D2F86038002B33
S1130DC0FBD1234B1C6924F07F040C431C61E9E72D
S1130DD07F2904D91C4842F24D71FFF783FE1B4A58
S1130DE004F07F01D2F86438002BFBD1184B9C69C6
S1130DF024F07F040C439C61D4E7154DD5F8903062
S1130E005B0704D5104842F25D71FFF76BFE6B6A15
S1130E1023F0300343F010036B62C4F3C311CB1C03
S1130E202A6B0C490F2B01EA020128BF0F2321432F
S1130E3041EA03712963B5E7BDE83840024842F24C
S1130E407771FFF74FBE00BFCE3000000020C843CB
S1130E5000400E4000F8FF0F022810B50C4604D0E5
S1130E60144842F28F71FFF73DFE134B5B6A13F097
S1130E70300F1BD0202C16D0302C17D0B4B10D4815
S1130E8042F2AA71FFF72EFE0C4B0B4AD2F89010D7
S1130E9033EA0101FAD15B024ABFD2F8A000012073
S1130EA0C0F3802010BD4FF40003EEE74FF440037D
S1130EB0EBE700BFCE30000000400E40FF33E107F7
S1130EC0022808B50CD129B1094B4FF48060C3F84E
S1130ED0A80059664AB1BDE808400220FFF7BCBF2C
S1130EE0044842F2E071FFF7FDFD012008BD00BF98
S1130EF000400E40CE30000004282DE9F04704469F
S1130F000F4691461FD83D4B3D4A13F800A03D4B78
S1130F1013F80080F1B93C4B33F810301366012309
S1130F2003FA08F8D2F8903013EA080FFAD1B9F1AD
S1130F30000F5AD00125324A05FA0AF5D2F890304A
S1130F402B42FBD151E0BDE8F047304842F27461D6
S1130F50FFF7C8BD2E4B022833F8106047D1536AFF
S1130F6013F0300F43D12B4BDB6B5A0504D42748C5
S1130F7042F28361FFF7B6FD214A536ADB0705D5C8
S1130F80536A23F0300343F010035362224D1C4B89
S1130F90A8441E664FEA8808D8F80030002BFBD01E
S1130FA0B9F1000F21D05544AD002B68002BFCD0C3
S1130FB0022C1AD1CFB1124F796A11F0010118D065
S1130FC0012220212046FFF77BFFD7F89C40012215
S1130FD000210220FFF790FFC4F30A010220FFF76B
S1130FE0C1FE3E662B68002BFCD0BDE8F0870027CD
S1130FF0CCE72046FFF730FFE7E700BF3F310000B2
S113100000400E404431000054310000CE30000056
S11310104A31000000300E408004F210112838B527
S11310200C460FD000F00F000138072800F2EB80C7
S1131030DFE810F0240066009A00E9007D00B400A7
S1131040E900C200042912D1FFF738FD0546A8B112
S11310500021284600F042FA023C0A2C45D8DFE879
S113106004F04A473137444444443D0F4D000529B8
S113107004D1664B1D68664B9D42E9D80025EBE719
S11310800320052401221146FFF736FFFFF778FD00
S11310900DB1FFF787FD5F4B5C67FFF7FDFC04466E
S11310A0FFF7D0FCFFF720FDFFF78AFD014620463D
S11310B0FFF79CFD002D5DD128460121BDE8384095
S11310C000F00CBA5448FFF70FFD02200446D9E79C
S11310D05148FFF709FD01240320D3E741F6E871E5
S11310E0BDE838404D48FFF7FDBC41F6ED71F7E728
S11310F001200324C6E700200424C3E70724C5E72E
S1131100062933D14548464D42F22C01FFF7EAFC4B
S1131110424842F23C01FFF7E5FCFFF793FCFFF77E
S1131120E3FC404B0122C3F80826032321E00629EF
S11311303D4DEDD0013C092C2BD801A353F824F0EC
S1131140991100007711000085110000931100002F
S1131150931100001B110000931100009311000073
S11311609311000071110000304DE3E72C4DE1E7CD
S113117004232B6038BD012211460020FFF7BCFE7A
S11311800223F6E7012211461046FFF7B5FE0123BC
S1131190EFE742F26701A3E70023EAE7072904D057
S11311A0092906D042F2F1019AE71A4B00221A6784
S11311B0E0E7184B0122FAE74C1E072C1ED8DFE8A3
S11311C004F0201D1D161D1D0F0403221149D1F822
S11311D05C3123F0300343EA0213C1F85C31C9E700
S11311E0012211460420FFF787FE0122EEE70122C7
S11311F011460220FFF780FE0222E7E742F24F1178
S11312006EE70022E2E742F2262169E70810002097
S1131210002D310100400E400148E801CE300000AD
S113122080400E400010C84388400E4084400E4069
S113123010B504461120FFF72FFD042804D12748D8
S113124042F20F51FFF74EFC012200210220FFF76A
S113125053FE63781BB9A3780BB9E37823B11F4815
S113126042F24B51FFF73EFC237C012B04D11B4877
S113127042F25251FFF736FC194A217C536A23F09B
S11312800103022908BF43F001035362154B21787F
S1131290C3F8A014637AA18843EAC123D362136B11
S11312A0A07A217A03F07F630343E08843EAC023F2
S11312B043EAC11303310F2928BF0F2143EA017305
S11312C01363A37B617B1B0143EA0133E17B0B4383
S11312D0217B43EA0143536310BD00BFCE300000BD
S11312E000400E400000C843EFF31180602383F3F5
S11312F01188704780F3118870470000034B5868C9
S1131300C0F30800003818BF0120704700ED00E06A
S1131310034BD86B80F04000C0F38010704700BFCF
S113132000300E4038B542EA0323B3F5007F05468A
S11313300C463ED019D8B3F5807F36D00AD883B393
S1131340012B21D01F4840F68E11FFF7CBFB002262
S113135013461FE040F201129342F3D11A4BD3F823
S113136024321A0EC3F3074314E0B3F5407F24D0AC
S113137040F20132934210D040F201229342E1D173
S1131380114BD3F8283202E00F4BD3F82432C3F3C5
S11313900722DBB22B60226038BD0B4BD3F8283216
S11313A0DFE7094BD3F81C32F1E7074BD3F81C32C3
S11313B0D7E7054BD3F82032E9E7034BD3F82032C3
S11313C0CFE700BF883100000081E00F08B5FFF7C8
S11313D09FFF20B1024AD2F8C830002BFBD108BDD0
S11313E00000C6431A4B022810B5D3F830320C461D
S11313F012D0032813D0012814BFDBB2C3F3072390
S11314001B0323F47042ECB95AB140F61D11114884
S1131410FFF768FB002010BDC3F30743F0E71B0E82
S1131420EEE70D49CA6E22F470421343CB660120E5
S1131430F1E70949D1F8EC2022F470421343C1F8D2
S1131440EC30F4E7002AF4D040F62911DFE700BFBE
S11314500081E00F8831000000300E40F8B50446EA
S11314600F46FFF755FF78B3FFF7B0FF174B5B68E4
S1131470C3F301439C4227D0154BD3F80061FFF717
S1131480E1FA022C05460FD1124BC6F3042606FBE3
S113149000069E4204D9104840F23161FFF722FB56
S11314A002212846FFF7A2FBC4F102021023934055
S11314B0064A13610FB1FFF789FF2CB9214628466C
S11314C0BDE8F840FFF792BBF8BD00BF00300E4006
S11314D000400E40002D31018831000013B5024652
S11314E0FFF716FFC8B152B90D4B0191D3F8004173
S11314F0FFF7A8FAC4F30422019902FB0002094B86
S11315001B7843B1084B9A4205D8022002B0BDE8CB
S11315101040FFF7A3BF0020F8E702B010BD00BFE2
S113152000400E406A160020002D3101094942781E
S11315300B6823F4407343EA0223022A0B6008D1A8
S1131540054B5B6A9B0004D5044840F26D61FFF7CC
S1131550C9BA704700300E4000400E408831000088
S1131560224B4AF6E85210B5596B5A639A6FD20768
S1131570FCD41B6C13F003031EBF1D4A0124C2F8E4
S1131580B44A834204D110B9194BC3F8B40A10BD4C
S1131590032B00D09BB9431E012B10D8134A4FF4E0
S11315A00023D362936FDB07FCD4136C23F0030393
S11315B043F0010313640D4A536A1C03FCD50B4B1F
S11315C09A6FD207FCD41A6C22F0030202431A6405
S11315D09A6F12F00102FBD10038054C18BF0120AC
S11315E00129C4F8B40A08BF5A63D0E700300E409A
S11315F00000C6432DE9F04FA0F5E16389B0002453
S1131600B3F5966FCDE90244CDE90444CDE906442F
S113161006468A46934605D940F6EE215548FFF71B
S113162061FAA3E0B0F5E16F534B8CBF01220022B5
S113163049D1D3F81832C3F30721DBB207910493DD
S11316404FF416754FF4966748E0BBF1000F0ED0C7
S1131650D9F85C2022F4FE4222F00202B6F5E16FD2
S113166042EA012218BF02200243C9F85C20BAF101
S1131670000F26D020460021FFF7B4FE044610B91F
S113168040F64B31CAE701214046FFF7ABFE044662
S113169010B940F65331C1E7384A536EBD4238BFE2
S11316A03D4623F4FF73E72D23F0010328BFE7250C
S11316B0B6F5E16F18BF43F0010343EA45035366EF
S11316C054E0012452E0D3F81832190EC3F307434F
S11316D0079104934FF496654FF4E167DFF89C900B
S11316E0D9F84C400192C4F30174234605A902A819
S11316F0FFF718FED9F8EC30019AC3F301284346EA
S113170006A903A8FFF70EFE049BF01B079FF91A16
S11317104143B1FBF5F299182CBF012300238F42FA
S11317201ED3EBB9069A039FD31B4343B3FBF5F3D4
S1131730FF182CBF01230023BA4211D383B9059BA0
S1131740029AA3EB020C00FB0CF0B0FBF5F5551963
S11317502CBF01200020AB4202D300283FF475AF18
S1131760044840F63C31FFF7BDF90024204609B097
S1131770BDE8F08F883100000081E00F00300E409A
S1131780334A08B5136FD16C11F0010F03F006034F
S113179044D0002B42D0132857D9143813288CBFB7
S11317A0102308232A49013BCA6C180322F47F4200
S11317B040EA03231343CB64264BCA6C1B88C2F351
S11317C003222833013202EB820003EB5303B3FB01
S11317D0F0F3C86C013B072B28BF072320F0EE6011
S11317E040EA036343F48013CB641B4BB3F900302A
S11317F0002B12DB03F12800C0F34E03034450080E
S113180000EB4202B3FBF2F20B6D072A28BF07225A
S113181023F0700343EA02120A6508BDD16C01F09B
S11318200101194304D109280FD90A380928B6E758
S1131830D26CD20702D50BB92728B0E7074840F687
S11318409131FFF74FF90023ACE70423AAE700BF67
S113185000300E4066160020681600208831000013
S11318600C4BD3F8803910B5044633B9012804D998
S1131870094840F6AF31FFF735F9084A136F23F0F2
S1131880070323431367064BBDE810401888FFF78E
S113189077BF00BF0000C6438831000000300E400F
S11318A06416002038B55A4B02229A639B6B03F0EE
S11318B00F039342044607D0564840F64B21FFF7E6
S11318C011F90025284638BD0389C82B04D951488D
S11318D040F65521FFF706F9A28823899A4204D9D4
S11318E04C4840F65621FFF7FDF8B4F90C30C82BEC
S11318F004DD484840F65721FFF7F4F86378012BDC
S113190055D1A388C82B04D940F65B214148FFF781
S1131910E9F8E28842F210739A4204D93D4840F64D
S11319206821FFF7DFF8E3884A2B48D9B3F5FA7F3B
S113193047D340F6C312934294BF4FF000524FF086
S113194040523349B4F90C00CB6C23F0405323F0DC
S113195001030028A8BF43F001031343CB64D1F86B
S1131960EC30A28843F44073C1F8EC302A4B1A805F
S1131970CB6E43F08073CB66284BD3F8800900B15B
S11319800420FFF76DFF264B21891980254BB4F9FC
S11319900C20A0881A80FFF7F3FEA37BA3B1012BD0
S11319A022D01C4840F6CE01FFF79CF80FE0022B32
S11319B0AFD1A3880A2BACD94FF42661A6E7002245
S11319C0BFE74FF08052BCE7114B174A9A650122DA
S11319D060881146FFF70EFE054640B90D4840F6F3
S11319E09F21FFF77FF86DE7094B104AEEE7084A9D
S11319F0D36B43F48063D3636078FFF7B1FDA37ABC
S1131A00A3F1200253425341044AC2F8943759E7E0
S1131A1000300E4088310000641600200000C643E8
S1131A20661600206816002077402057372110B72B
S1131A300C4B022210B59A63DA6B42F48062DA63CB
S1131A409A6FD207FCD403221A641B6C93420CBF16
S1131A500124002404D0044840F6DD31FFF742F8A5
S1131A60204610BD00300E4088310000FEE708B566
S1131A7000F0E6FAA0F140035842584108BD0000C6
S1131A80044BC1F8F03018B1826802B1D368C36165
S1131A90704700BFFB310000036810B533B9012261
S1131AA00281C1E90933016041601CE0028991F8B7
S1131AB033400132028193F83320A2420CD85B6A8E
S1131AC0002BF8D14B6243688B625962ECE7C1E9A1
S1131AD009325162996206E09A6A002AF7D1C1E993
S1131AE009329962016010BDC36A5BB19A68526A97
S1131AF04AB9C3E902221A8A013A1A820023C0E9C8
S1131B000933C3627047D0E9092111B991629A601F
S1131B10F1E74A620AB9D960EDE79162EBE738B5BB
S1131B20C56AAB685B6A4BB1FFF7DEFFC56201466D
S1131B3005F10800BDE83840FFF7AEBF38BD00002E
S1131B4090F833300B490C22534330B5CA58CC18A3
S1131B5032B901252581C0E90422C850606030BD36
S1131B602589013525810024026144615061C850F2
S1131B70F5E700BFB016002090F833200B490C2382
S1131B805A4330B58C588B1834B901251D81C0E9EE
S1131B9004448850586030BD1A8901321A810022E9
S1131BA002615A6842611061F4E700BFB016002078
S1131BB010B5044690F8330000F052FA084B94F83C
S1131BC033201B789A42204606D1FFF7D5FF2046E2
S1131BD0BDE81040FEF7F8BEFFF7B2FFF7E700BF1D
S1131BE0AC16002038B50C4691F83210072905468A
S1131BF0049807D80239052906D8DFE801F006065B
S1131C0005052525FF293AD138BDE267A4F88030BF
S1131C10606415B12046FFF767FF21462846FFF7A9
S1131C202FFF94F83230032B06D104F1580000F052
S1131C30ABFD08B1FFF71AFF2046FFF7B9FF0023F9
S1131C40238684F83230DFE7E267A4F880306064EA
S1131C5015B12046FFF748FF21462846FFF710FF3D
S1131C6094F83230072B06D104F1580000F08CFDB3
S1131C7008B1FFF7FBFE002323860423E1E7BDE858
S1131C803840FFF7F3BED0E90032934210B50FD0CD
S1131C901C690021A24215BF6161C3E90412C3E9B2
S1131CA00412C2E9043116BF136102600460436088
S1131CB010BD000070B50446D4E9043590F8330033
S1131CC0124A0C21BDB973B94143551853502B81A5
S1131CD06B6000F0DBF90023C4E904332046BDE85F
S1131CE07040FEF787BE48431618318901393181A7
S1131CF05D611350EFE701FB002211890139118165
S1131D002B610BB95560E6E75D61E4E7B01600208E
S1131D1013B5044670B1084B1B78012B0AD100237C
S1131D20CDE90033054A816F0346054800F070FD94
S1131D30044B1C6002B010BDB8190020491F0000FC
S1131D407416002070160020F8B50446A8B1114B93
S1131D501B78012B11D1456F0F4E7DB90F4B1F68B6
S1131D6000F0B2FD32682B46511E0D461946E7FBC2
S1131D700051284600F0B6FFA067F8BD00F0A4FDAE
S1131D8032680023511E0E461946E5FB00613046B9
S1131D90F0E700BFB81900206C160020B419002029
S1131DA02DE9F7435E4B1B78012B00D0FEE75D4B1A
S1131DB093F80080B8F1000F40F09680FFF794FA92
S1131DC0594F5A4C97F80090594D064600F038F98F
S1131DD040280346387000F08A800C20DFF85C81CC
S1131DE04343B9F1400F58F80330236003D100F0A6
S1131DF06DF9AFF3008022682B68DFF844919A42B2
S1131E0018D1002000F0A6F9012802D0286800F0BB
S1131E10D3FB99F800303BB12068836F0BB9FFF70F
S1131E2093FF2068FFF774FF304603B0BDE8F0432A
S1131E30FFF760BA99F800301BB3DFF80891D9F8BE
S1131E4000309B6FEBB13B4801A900F005FD30B9B0
S1131E50D9F80030019A37489A6700F095FCD9F810
S1131E6000309A6F6AB993F8330000EB400008EB36
S1131E708000FFF708FF3B780C22534358F80330E7
S1131E8023602268D2F8C4300133C2F8C4302A4A2D
S1131E901368013313603B78402B33D02B682268DE
S1131EA0934215D0A3B100F0C1FA2B68D3F8CC301B
S1131EB098421FD300F0BAFA2B68D3F8CC30C01A7A
S1131EC02A68D2F8D030C2F8C8001844C2F8D0004A
S1131ED0246800F0ABFAC4F8CC0000F0F8FA3046FD
S1131EE0FFF708FABFF36F8F03B0BDE8F083C4F8BF
S1131EF00080CCE700F09AFA2B68D3F8CC20D243C8
S1131F001044DDE700F0DAF82C681CB100F08EFA1A
S1131F10C4F8CC00FEF78EFCAFF30080DDE700BF11
S1131F20B0190020B1190020AD160020C0190020FE
S1131F30BC19002074160020C4190020B01600201B
S1131F40B81900207016002038B50E4B1B78012BF1
S1131F500D4616D1FFF7C8F90023AB670A4B1B687F
S1131F6093F833300446094803EB430300EB830042
S1131F70FFF789FE2046FFF7BDF9BDE83840FFF7BB
S1131F800FBF38BDB819002070160020B01600200D
S1131F90428910B582B1094B01681C680C60416824
S1131FA01960D988891AD9809988114499800023A5
S1131FB0C0E9003343818381104610BDA016002080
S1131FC0836B00F138028B42186A01D110607047AC
S1131FD003F120020346F6E7836B3F2003B9704701
S1131FE09A6822B192F83320904228BF10461B6AA7
S1131FF0F4E72DE9F341846B0546012714B902B0D7
S1132000BDE8F081D4F8208000F010FA2146E062A7
S113201006462846FFF7D4FFA16821B984F82810A2
S113202061624446EAE784F828708B6B23620023DC
S113203065621A468C6320460096FFF7D3FDF0E7ED
S113204008B5064B186828B9586800F0F5F920302F
S1132050C0B208BD00F0F0F9FAE700BF9016002006
S11320601F28094A07D84FF0004323FA00F01368E9
S11320700343136070470123C0F13F0003FA00F0EB
S11320805368184350607047901600201F280A4B6D
S113209008D84FF0004222FA00F01A6822EA00023F
S11320A01A6070470122C0F13F0002FA00F05A683A
S11320B022EA00025A6070479016002008B500F02A
S11320C0B5F9014B186008BD9816002010B50A4CEC
S11320D000F0ACF92368984208D300F0A7F923680C
S11320E0C01A064A13681844106010BD00F09EF927
S11320F02368DB431844F4E7981600209C1600205C
S1132100D0E93A2342B90A490B600BB1C3F8E8207D
S11321100023C0F8EC307047C2F8EC3013B9C0F8B3
S1132120E8307047C3F8E8200023C0F8EC30F6E745
S1132130C8190020064A031F1C3053F8041F91429B
S113214003D18342F9D1012070470020704700BFBA
S11321504523CDAB08B9084B1868026883699A42D5
S113216007D3C16B03EB8100824202D21846FFF70A
S1132170E1BF0020704700BFBC19002070B50446C1
S11321800D4694F83230072B08D8013B062B0BD8A8
S1132190DFE803F01F22221F1F222200FF2B1AD088
S11321A0BDE87040FFF762BC2046FFF783FD284678
S11321B084F83350FFF754FF2D4B1B68A34220468D
S11321C003D1BDE87040FFF7BBBCBDE87040FFF72A
S11321D0D3BC84F8335070BD94F8303094F8336035
S11321E084F83350013B072BDAD801A252F823F0CC
S11321F011220000D7210000A12100001B220000B1
S11322001122000011220000D72100001122000039
S11322102046BDE87040FFF782BC2046FFF77FFCF4
S1132220E36A5C6AB54294F833300AD2AB42D2D93D
S11322302046FEF7AFF82A4601462D20FEF758FA4D
S11322409FE7B3429DD12046FFF7C6FE94F83420A1
S113225094F83330904228BF1046C5B2AB42BAD08E
S11322602046FEF797F82A4601462E20E6E700BFEF
S1132270BC1900202DE9F04104460D4609B9FFF7C9
S1132280F5FBFFF73BF848B120232B705B4B6B60E9
S11322904FF4DB73AB605A4BEB60FEE7594B1B7892
S11322A0012B0AD002232B70544B6B604FF4DD7367
S11322B0AB60534BEB60BDE8F0812CB9FFF714F829
S11322C0514B1C68FFF716F8FFF70EF894F83230FC
S11322D0072B804608D8013B062B0DD8DFE803F016
S11322E04935350F49353500FF2B7DD0FFF702F80E
S11322F0BDE8F041FFF7BABB2046FFF7DBFCA36B58
S113230013B12046FFF775FE04F18400FFF740FE89
S1132310204600F05DF92046FFF7F2FE3B4A1388A1
S1132320013B1380FF2384F832304046FEF7E2FF7E
S113233000232B70314B6B6040F23323AB60304B86
S1132340EB60BDE8F041FFF72BBD94F83030082B6B
S113235047D8DFE803F00805084617050508050017
S11323602046FFF7C1FB94F8323003F0FB03032B44
S1132370C5D104F1580000F007FA0028BFD0FFF7D8
S113238075FBBCE7E36A5E6A204696F83370FFF794
S1132390ABFB96F8333096F834209A420CD094F87C
S11323A033209A4208D13046FFF716FE96F83410CF
S11323B0814228BF0146CFB2002384F8303096F81A
S11323C03330BB42CFD039463046FFF7D7FE3046D4
S11323D0FDF7E0FF96F8332001462E20FEF788F93A
S11323E0C1E7FFF743FBBEE7FEF784FF1F232B7013
S11323F0024B6B6040F209235AE700BFFD31000035
S113240070320000B0190020BC190020CC19002043
S11324101FB5054B186800F0DCF869460020FFF78B
S113242029FF05B05DF804FBBC190020014B586876
S1132430704700BF001000E0B0FA80F0704790FAD7
S1132440A0F0B0FA80F0704790FAA0F0704700BF97
S113245072B64EF62250CEF2000040F2FF01C0F2F6
S113246000010170002080F3098841F6D010C2F207
S11324700000016881F3088800F0ACF841F2AC6018
S1132480C2F2000041F2AD61C2F200010A780270AA
S113249041F6BC10C2F2000041F6C011C2F20001C4
S11324A00A680260106880F30988EFF3148040F032
S11324B0020020F0040080F31488BFF36F8FBDE89E
S11324C0F04F0FBCBDE8005006BC62B60847374861
S11324D04FF080510160704734484FF080510160E3
S11324E07047602080F3118841F6BC12C2F20002EA
S11324F01168002901BF2E4A136823F001031360F9
S11325000ED0EFF309801EF0100F08BF20ED108AE3
S113251020E9F04F41F6BC15C2F2000529680860B5
S1132520744600F057F841F6BC11C2F2000141F6BE
S1132530C010C2F2000003680B6041F2AC62C2F248
S1132540000241F2AD61C2F200010878107044F05B
S1132550040E002B0AD01868B0E8F04F1EF0100FDC
S113256008BFB0EC108A80F309881BE041F6D01153
S1132570C2F200010868A0F11C0080F3088840F250
S11325800001C0F20011C16142F2B551C0F2000174
S1132590816142F21141C0F2000141614FF6F97EBE
S11325A0CFF6FF7E002080F31188704704ED00E031
S11325B034EF00E000BFFDE707B5FEF795FE01909C
S11325C0FFF754FA019803B05DF804EBFEF792BEEE
S11325D07047704710B50F4C206848B10E4B1B78FC
S11325E033B1836F0BB9FFF7AFFB2068FFF790FBA4
S11325F020680A4CFEF7F3F923684BB10020FFF77B
S1132600A9FD012804D02068BDE81040FFF7D4BF1D
S113261010BD00BFC0190020B8190020BC1900204B
S113262030B50F4C41612368ABB92060836011E081
S1132630891A9A6841611D462AB113465A698A4229
S1132640F6D955B11A46A8601346836013B15A6986
S1132650511A596130BD0025F0E72060F5E700BF4D
S1132660E419002010B500F0CFF90A4C0A4B1968A0
S11326702368C31A01B10BB9206010BD4A699A429C
S11326802EBFD21A9B1A00224A6128BF00238968F0
S1132690F0E700BFD4190020E419002038B50F4B2F
S11326A00F4D1C682B685B6902201C4400F0DAF9AA
S11326B0204600F0AFF90B492A6800230B70D0883C
S11326C0800702D501230B7038BD9268002AFBD025
S11326D050690344012BF2D9F6E700BFD419002056
S11326E0E4190020D819002070B516469DF814206E
S11326F00271049A0260C0E903360022BDF8183062
S11327008260C38004460D4600F07EF93044A06127
S11327103DB9E368656113B121682046984796B1D5
S11327203546FEF7E1FD0646FFF79CFF29462046A5
S1132730FFF776FF054B1B68A34201D1FFF7AEFFFD
S11327403046FEF7D7FD002070BD00BFE41900201D
S11327500C490B6800227BB183420AD183687AB1A9
S1132760936083681BB15A6941690A445A61002025
S113277070471A469B68EEE70028EFD002207047A6
S11327800B60EEE7E41900202DE9F0410546F8B1AD
S1132790FEF7AAFD0F4F0646FFF764FF2846D7F859
S11327A00080FFF7D5FF044628B13046FEF7A2FDAE
S11327B02046BDE8F081A8453B6803D123B1FFF76B
S11327C06DFFF2E7002BF0D1022000F059F9ECE79D
S11327D02224EDE7E419002038B50C46054698B1EB
S11327E091B100230B70FEF77FFD084B1B6801219C
S11327F00BB122781AB1FEF77DFD002038BDAB4243
S113280014BF9B682170F3E72220F7E7E419002046
S1132810F0B587B01F4600230D4616468DF81730D5
S11328200446A0B10DF11701FFF7D6FF9DF817205C
S11328307AB9BDF8343002939DF830302946CDE999
S1132840007320463346FFF74FFF07B0F0BD222048
S1132850FBE70320F9E70000F8B50C460546C8B1CC
S1132860C1B1FEF741FD0646FFF7FCFE6B6923602C
S1132870134B1B68AB420FD023B93046FEF73AFD29
S113288003201CE0596922689B680A442260F1E72E
S113289000230FE0222012E00A4D276800F0B4F86C
S11328A02B68C01A8742F3D900F0AEF82B6822686F
S11328B013441B1A30462360FEF71CFD0020F8BDAC
S11328C0E4190020D4190020014B1868704700BF98
S11328D0E0190020C2072DE9F84F04460BD5464AFB
S11328E0138801339BB21380FFF7BCFE434B1B6874
S11328F00BB1FFF7D3FEA3077CD5FEF7F5FC054625
S1132900FFF7B0FE4FF0000A3C4FDFF8F890564650
S1132910D0463C680CB163698BB1394B0022012E5F
S11329201A7003D1BAF1020F08BF1E70002C51D0E7
S1132930FFF7B4FE2846BDE8F84FFEF7DBBC23469C
S11329401A792179914288BF1C469B6813B15A6950
S1132950002AF5D02846FEF7CDFCD4F810A0BAF131
S1132960000F3BD000F050F8A269851AEB17AA4576
S113297078EB030333DA23691344A3610122236947
S1132980D3B1CAB9EB17BAEB050563EB4303002BCC
S113299004DA40F202414846FEF7A4F8FEF7A4FC2C
S11329A0294682462046FFF73BFEA3692269134469
S11329B0A3615046FEF79EFCE368B4F806A0013616
S11329C013B1216820469847FEF78EFC0546FFF7B1
S11329D049FE9EE7022000F053F8ABE75546FEF7A8
S11329E083FC83462046FFF7B3FE5846FEF782FC7D
S11329F00022C4E7BDE8F88FDA190020E4190020AA
S1132A00DC1900207A320000014B9868704700BF3F
S1132A1000200440114A9368516D9269520704D40E
S1132A20CA1A032A01D88B420DD1C21A022A98BFAE
S1132A30D81C0A4BB0F1FF3F38BF013858655A6AB9
S1132A4042F004025A62064A137833B103490B6D0B
S1132A5043F002030B650023137070470020044009
S1132A60101000208207054A00F00103516A48BF94
S1132A7043F004030B435362704700BF002004403B
S1132A80820700F0010309D5074A012111700749A3
S1132A900A6D22F0030243F004030A6503494A6AFB
S1132AA022EA03034B627047101000200020044008
S1132AB010B5FEF719FC094A93690446590703F057
S1132AC0010003F0070348BF40F002001362FFF760
S1132AD001FF2046BDE81040FEF70CBC0020044076
S1132AE070B52A4B86B001AA03F110061546186882
S1132AF05968144603C40833B3422246F7D11B88ED
S1132B002380234B01225A64224BD3F8FC20224B0E
S1132B10120E12D14AF6E851C3F89011D3F8981165
S1132B2041F00401C3F89811C3F89021D3F864214B
S1132B3042F40052C3F8642101E0012AF6D0174A96
S1132B40136A23F4441343F488131362A2F58052E6
S1132B50D2F8A43143F4F843C2F8A431FEF768FF75
S1132B602846FEF765FB04211120FEF757FA0C48AE
S1132B700121FEF749F80B480321FEF74FFA012122
S1132B8000220846FEF7B8F906B070BDF232000024
S1132B9000000E400081E00F00300E4000400E4067
S1132BA030253E0005002400002208B5114601200E
S1132BB0FEF7A2F9002211461046FEF79DF90748D8
S1132BC00A21FEF72BFA06480121FEF71DF8BDE89D
S1132BD0084004480121FEF717B800BF02001E0098
S1132BE030253E0000350A00F0B5384B8BB001AA01
S1132BF003F11005164618685968144603C40833CF
S1132C00AB422246F7D1324B05AA03F11007154611
S1132C1018685968144603C40833BB422246F7D1E6
S1132C201B8823802B4B01225A642B4BD3F8FC20A6
S1132C302A4B120E12D14AF6E851C3F89011D3F878
S1132C40981141F00401C3F89811C3F89021D3F806
S1132C50642142F40052C3F8642101E0012AF6D051
S1132C601F4A136A23F4441343F488131362A2F52E
S1132C7080520024D2F8A43143F4F843C2F8A431BA
S1132C8030468DF8004002268DF80140FEF70AFE1A
S1132C9068468DF80160FEF749FC2846FEF7C8FA3D
S1132CA0012211460320FEF727F905211120FEF722
S1132CB0B5F9304622462146FEF71EF9FFF774FFA8
S1132CC0FFF70EFF20460BB0F0BD00BF0433000039
S1132CD01433000000000E400081E00F00300E406D
S1132CE000400E4053B94AB9002908BF00281CBF50
S1132CF04FF0FF314FF0FF3000F074B9ADF1080C24
S1132D006DE904CE00F006F8DDF804E0DDE9022305
S1132D1004B070472DE9F047089D04468E46002B09
S1132D204DD18A42944669D9B2FA82F252B101FA7B
S1132D3002F3C2F1200120FA01F10CFA02FC41EA8B
S1132D40030E94404FEA1C48210CBEFBF8F61FFA10
S1132D508CF708FB16E341EA034306FB07F19942AB
S1132D600AD91CEB030306F1FF3080F01F8199425E
S1132D7040F21C81023E63445B1AA4B2B3FBF8F038
S1132D8008FB103344EA034400FB07F7A7420AD9BF
S1132D901CEB040400F1FF3380F00A81A74240F2E7
S1132DA007816444023840EA0640E41B00261DB152
S1132DB0D4400023C5E900433146BDE8F0878B4287
S1132DC009D9002D00F0EF800026C5E90001304646
S1132DD03146BDE8F087B3FA83F6002E4AD18B4220
S1132DE002D3824200F2F980841A61EB03030120CA
S1132DF09E46002DE0D0C5E9004EDDE702B9FFDEB6
S1132E00B2FA82F2002A40F09280A1EB0C014FEA60
S1132E101C471FFA8CFE0126200CB1FBF7F307FBBD
S1132E20131140EA01410EFB03F0884208D91CEB60
S1132E30010103F1FF3802D2884200F2CB804346FD
S1132E40091AA4B2B1FBF7F007FB101144EA0144DC
S1132E500EFB00FEA64508D91CEB040400F1FF316B
S1132E6002D2A64500F2BB800846A4EB0E0440EA59
S1132E7003409CE7C6F12007B34022FA07FC4CEA62
S1132E80030C20FA07F401FA06F31C43F9404FEA55
S1132E901C4900FA06F3B1FBF9F8200C1FFA8CFE6A
S1132EA009FB181140EA014108FB0EF0884202FABE
S1132EB006F20BD91CEB010108F1FF3A80F088807F
S1132EC0884240F28580A8F102086144091AA4B23C
S1132ED0B1FBF9F009FB101144EA014100FB0EFEBD
S1132EE08E4508D91CEB010100F1FF346CD28E45EC
S1132EF06AD90238614440EA0840A0FB0294A1EB7D
S1132F000E01A142C846A64656D353D05DB1B3EBD9
S1132F10080261EB0E0101FA07F722FA06F3F14009
S1132F201F43C5E9007100263146BDE8F087C2F1B0
S1132F302003D8400CFA02FC21FA03F39140014328
S1132F404FEA1C471FFA8CFEB3FBF7F007FB103661
S1132F500B0C43EA064300FB0EF69E4204FA02F40D
S1132F6008D91CEB030300F1FF382FD29E422DD960
S1132F70023863449B1B89B2B3FBF7F607FB163395
S1132F8041EA034106FB0EF38B4208D91CEB010115
S1132F9006F1FF3816D28B4214D9023E6144C91A95
S1132FA046EA004638E72E46284605E70646E3E6A5
S1132FB01846F8E64B45A9D2B9EB020864EB0C0EAF
S1132FC00138A3E74646EAE7204694E74046D1E7BE
S1132FD0D0467BE7023B614432E7304609E764446C
S1132FE0023842E7704700BF08B5074B044613B1E7
S1132FF00021AFF30080054B1868836A03B198473A
S1133000204600F047F800BF00000000283300000D
S113301070B50D4D0D4C641BA4100026A64209D1B9
S11330200B4D0C4C00F038F8641BA4100026A6428B
S113303005D170BD55F8043B98470136EEE755F8C5
S1133040043B98470136F2E7741000207410002006
S113305074100020781000200A44914200F1FF33DC
S113306000D1704710B511F8014B03F8014F91429C
S1133070F9D110BD02440346934200D1704703F8CE
S1133080011BF9E7034611F8012B03F8012B002A71
S1133090F9D17047FEE700BFF8B500BFF8BC08BC23
S11330A09E467047F8B500BFF8BC08BC9E46704702
S11330B05465726D696E616C0052545400534547F7
S11330C04745520000000000000000000000433AA1
S11330D02F53696C69636F6E4C6162732F53696D12
S11330E0706C696369747953747564696F2F76358C
S11330F02F646576656C6F7065722F73646B732FC4
S11331006765636B6F5F73646B5F73756974652F59
S113311076332E322F706C6174666F726D2F656D0D
S11331206C69622F7372632F656D5F636D752E63B7
S1133130000403020B050C0302010A0302060A0938
S11331400703010508060200040000014000040012
S113315001001000000280000800020020000000AE
S113316040787D0100000000005A62020001000066
S1133170C0CF6A0002000000809FD5000201000059
S1133180002D310102020000433A2F53696C696338
S11331906F6E4C6162732F53696D706C69636974EF
S11331A07953747564696F2F76352F646576656C11
S11331B06F7065722F73646B732F6765636B6F5FDA
S11331C073646B5F73756974652F76332E322F7059
S11331D06C6174666F726D2F656D6C69622F7372AA
S11331E0632F656D5F656D752E63005461736B208D
S11331F051005461736B2053656D002000433A2FD6
S113320053696C69636F6E4C6162732F53696D709F
S11332106C696369747953747564696F2F76352F9B
S1133220646576656C6F7065722F73646B732F675A
S113323065636B6F5F73646B5F73756974652F7619
S1133240332E322F706C6174666F726D2F6D6963EB
S11332507269756D5F6F732F6B65726E656C2F731A
S11332606F757263652F6F735F7461736B2E630088
S11332704F535461736B44656C00433A2F53696C2C
S113328069636F6E4C6162732F53696D706C69630F
S113329069747953747564696F2F76352F64657614
S11332A0656C6F7065722F73646B732F6765636BE6
S11332B06F5F73646B5F73756974652F76332E3239
S11332C02F706C6174666F726D2F736572766963AB
S11332D0652F736C65657074696D65722F737263A5
S11332E02F736C5F736C65657074696D65722E63A2
S11332F0000001000000A00068010A200706020A7D
S1133300040700000002080705000A00C8000000C6
S1133310FFFF010001000000A00068010A20070669
S10F3320020A0407000000001410002042
S10B332C20CEFF7F0100000028
S1133334C0EA2101005A6202C0EA210100800000AF
S11333440100000000000000000000000000000074
S11333540000000000000000000000000000000065
S11333640000000000000000000000000000000055
S11333740000000000000000000000000000000045
S11333840000000000000000000000000000000035
S11333940000000000000000000000000000000025
S10F33A400000000310100000D010000D9
S9030A11E1
